:03000000020100FA
:03000B00020050A0
:10005000C28C0A758C00758A00D2AFD2A9D28C32BC
:10010000319CC294D2AFD2A9748031D951079002E8
:100110001831F9510774C031D9510790022331F9D0
:10012000317F317FD294758901758C00758A00D238
:100130008CA29050FCC294C28CAB8CAC8A7480317F
:10014000D9510790023031F9510774C031D95107A4
:1001500090023E31F9EAC4540F3175243031E8EA97
:10016000540F3175243031E8317F317F317F317F59
:10017000317F020108C39409400224072409227E2A
:10018000283188DEFC02019B758910758D3C758BCA
:10019000B0D28E308FFDC28EC28F222275A038C29F
:1001A00080C281D2825107C282510775A00CC280E1
:1001B000C281D2825107C282510775A001C280C29A
:1001C00081D2825107C282510775A006C280C281C6
:1001D000D2825107C282510722F5A0C280C281D2C9
:1001E000825107C282510722F5A0D280C281D282F9
:1001F0005107C2825107510722C0E0E493600531E4
:10020000E8A380F7D0E022C000C001780179FFD9CF
:10021000FED8FAD001D00022546F67676C65205376
:100220005731006966204C454420676C6F77730036
:100230005265616374696F6E2054696D6500436F28
:08024000756E74206973200043
:00000001FF
