:100000007590FF11B3311E311E748011F0311E90B6
:1000100006003110311E74C011F0311E90060E31F1
:10002000108590F053F007AFF005F0740A95F07565
:10003000F008A404D294D295D296D297119BC29480
:10004000C295C296C297F5F015F015F0745095F070
:10005000119B748C11F074399F9430FE243011FF81
:1000600075F002EEA4FE748D11F07F30EF11FF7475
:10007000CC11F0EE75F00A84243011FF74CD11F02C
:10008000E5F0243011FF74CE11F07F30EF11FF74D2
:10009000CF11F07F30EF11FF020021F8D801227557
:1000A0008901758C3C758AB0D28C308DFDC28CC2B2
:1000B0008D80E975A038C280C281D282311EC28291
:1000C000311E75A00CC280C281D282311EC2823123
:1000D0001E75A001C280C281D282311EC282311E31
:1000E00075A006C280C281D282311EC282311E2218
:1000F000F5A0C280C281D282311EC282311E22F599
:10010000A0D280C281D282311EC282311E311E2213
:10011000C0E0E493600511FFA380F7D0E022C000A7
:06012000C0017801799B8B
:09012600D9FED8FAD001D0002264
:100600002044757479204379636C653A20005075F5
:0C0610006C73652057696474683A200020
:00000001FF
