:03000000020200F9
:03001B00D30D32D0
:10020000D2AFD2ABC294C295C296C29730900320AF
:1002100090EE7149714951DE7482711B71499006EB
:1002200000713B714974C0711B714990060C713BA0
:1002300051455145D294758910D28E20902050FEA0
:1002400020901B80F17829D80122758901758C3C9A
:10025000758AB0D28C308DFDC28CC28D80E9C2947B
:10026000714971497480711B7149900619713B7114
:100270004974C0711B7149900628713B74C9711B88
:10028000EDC4540F51D42430712A74CA711BED543B
:100290000F51D42430712A74CB711BE58DC4540FD7
:1002A00051D42430712A74CC711BE58D540F51D474
:1002B0002430712A74CD711BE58BC4540F51D424A2
:1002C00030712A74CE711BE58B540F51D4243071D8
:1002D0002A020200C394094002240724093275A0AF
:1002E00038C280C281D2827149C282714975A00C24
:1002F000C280C281D2827149C282714975A001C295
:1003000080C281D2827149C282714975A006C280C1
:10031000C281D2827149C282714922F5A0C280C2D3
:1003200081D2827149C282714922F5A0D280C281F4
:02033000D28277
:100332007149C2827149714922C0E0E4936005713A
:100342002AA380F7D0E022C000C0017801799BD9AE
:08035200FED8FAD001D0002210
:1006000020546F67676C6520535731006966204C32
:10061000454420676C6F777300205265616374698D
:100620006F6E2054696D6500436F756E7420697339
:020630002000A8
:00000001FF
